{
  "_format": "hh-sol-artifact-1",
  "contractName": "PredictionFactory",
  "sourceName": "contracts/PredictionFactory.sol",
  "abi": [
    {
      "inputs": [],
      "stateMutability": "nonpayable",
      "type": "constructor"
    },
    {
      "inputs": [
        {
          "internalType": "address",
          "name": "owner",
          "type": "address"
        }
      ],
      "name": "OwnableInvalidOwner",
      "type": "error"
    },
    {
      "inputs": [
        {
          "internalType": "address",
          "name": "account",
          "type": "address"
        }
      ],
      "name": "OwnableUnauthorizedAccount",
      "type": "error"
    },
    {
      "inputs": [],
      "name": "ReentrancyGuardReentrantCall",
      "type": "error"
    },
    {
      "anonymous": false,
      "inputs": [
        {
          "indexed": true,
          "internalType": "address",
          "name": "previousOwner",
          "type": "address"
        },
        {
          "indexed": true,
          "internalType": "address",
          "name": "newOwner",
          "type": "address"
        }
      ],
      "name": "OwnershipTransferred",
      "type": "event"
    },
    {
      "anonymous": false,
      "inputs": [
        {
          "indexed": true,
          "internalType": "uint256",
          "name": "predictionId",
          "type": "uint256"
        },
        {
          "indexed": true,
          "internalType": "address",
          "name": "creator",
          "type": "address"
        },
        {
          "indexed": false,
          "internalType": "address",
          "name": "predictionAddress",
          "type": "address"
        },
        {
          "indexed": false,
          "internalType": "uint256",
          "name": "endTime",
          "type": "uint256"
        },
        {
          "indexed": false,
          "internalType": "uint256",
          "name": "targetPrice",
          "type": "uint256"
        }
      ],
      "name": "PredictionCreated",
      "type": "event"
    },
    {
      "inputs": [
        {
          "internalType": "string",
          "name": "_pairName",
          "type": "string"
        },
        {
          "internalType": "enum PredictionMarket.Direction",
          "name": "_direction",
          "type": "uint8"
        },
        {
          "components": [
            {
              "internalType": "uint256",
              "name": "base",
              "type": "uint256"
            },
            {
              "internalType": "int32",
              "name": "expo",
              "type": "int32"
            }
          ],
          "internalType": "struct PredictionMarket.Price",
          "name": "_targetPrice",
          "type": "tuple"
        },
        {
          "internalType": "uint256",
          "name": "_endTime",
          "type": "uint256"
        },
        {
          "internalType": "string",
          "name": "_metadataURI",
          "type": "string"
        },
        {
          "internalType": "uint256",
          "name": "_initialLiquidity",
          "type": "uint256"
        }
      ],
      "name": "createPrediction",
      "outputs": [
        {
          "internalType": "address",
          "name": "",
          "type": "address"
        }
      ],
      "stateMutability": "nonpayable",
      "type": "function"
    },
    {
      "inputs": [
        {
          "internalType": "uint256",
          "name": "_predictionId",
          "type": "uint256"
        }
      ],
      "name": "getPredictionOutcome",
      "outputs": [
        {
          "internalType": "enum PredictionMarket.Outcome",
          "name": "",
          "type": "uint8"
        }
      ],
      "stateMutability": "view",
      "type": "function"
    },
    {
      "inputs": [
        {
          "internalType": "address",
          "name": "_user",
          "type": "address"
        }
      ],
      "name": "getUserPredictions",
      "outputs": [
        {
          "internalType": "uint256[]",
          "name": "",
          "type": "uint256[]"
        }
      ],
      "stateMutability": "view",
      "type": "function"
    },
    {
      "inputs": [],
      "name": "owner",
      "outputs": [
        {
          "internalType": "address",
          "name": "",
          "type": "address"
        }
      ],
      "stateMutability": "view",
      "type": "function"
    },
    {
      "inputs": [],
      "name": "predictionCount",
      "outputs": [
        {
          "internalType": "uint256",
          "name": "",
          "type": "uint256"
        }
      ],
      "stateMutability": "view",
      "type": "function"
    },
    {
      "inputs": [
        {
          "internalType": "uint256",
          "name": "",
          "type": "uint256"
        }
      ],
      "name": "predictions",
      "outputs": [
        {
          "internalType": "address",
          "name": "",
          "type": "address"
        }
      ],
      "stateMutability": "view",
      "type": "function"
    },
    {
      "inputs": [],
      "name": "renounceOwnership",
      "outputs": [],
      "stateMutability": "nonpayable",
      "type": "function"
    },
    {
      "inputs": [
        {
          "internalType": "address",
          "name": "newOwner",
          "type": "address"
        }
      ],
      "name": "transferOwnership",
      "outputs": [],
      "stateMutability": "nonpayable",
      "type": "function"
    },
    {
      "inputs": [
        {
          "internalType": "address",
          "name": "",
          "type": "address"
        },
        {
          "internalType": "uint256",
          "name": "",
          "type": "uint256"
        }
      ],
      "name": "userPredictions",
      "outputs": [
        {
          "internalType": "uint256",
          "name": "",
          "type": "uint256"
        }
      ],
      "stateMutability": "view",
      "type": "function"
    },
    {
      "inputs": [
        {
          "internalType": "address",
          "name": "token",
          "type": "address"
        }
      ],
      "name": "withdrawProtocolFees",
      "outputs": [],
      "stateMutability": "nonpayable",
      "type": "function"
    }
  ],
  "bytecode": "0x6080806040523461007e5733156100685760008054336001600160a01b03198216811783556040519290916001600160a01b0316907f8be0079c531659141344cd1fd0a4f28419497f9722a3daafe3b4186f6b6457e09080a36001805561538390816100848239f35b631e4fbdf760e01b815260006004820152602490fd5b600080fdfe60806040818152600491823610156200001757600080fd5b600090813560e01c9081624fbbb014620009ea575080632d80caa51462000760578063715018a614620007025780638da5cb5b14620006d85780638e0596a214620006b7578063a6cb421814620005bc578063c285f8531462000505578063d52b8198146200018d578063f2fde38b14620000fb5763f6c33179146200009c57600080fd5b34620000f85781600319360112620000f857620000b862000a1c565b6001600160a01b0316815260209290925280822080546024359390841015620000f85750602092620000ea9162000af8565b91905490519160031b1c8152f35b80fd5b5091346200018957602036600319011262000189576200011a62000a1c565b906200012562000b27565b6001600160a01b039182169283156200017357505082546001600160a01b0319811683178455167f8be0079c531659141344cd1fd0a4f28419497f9722a3daafe3b4186f6b6457e08380a380f35b51631e4fbdf760e01b8152908101849052602490fd5b8280fd5b509034620005015760e0366003190112620005015767ffffffffffffffff928035848111620004eb57620001c5903690830162000aab565b6024938435926002841015620005015784604319360112620005015784519285840184811089821117620004ef5786526044358452606435978860030b8903620004eb576020988986019081526084359660a435838111620004e75762000230903690870162000aab565b60c43592428a1115620004af57428a038a81116200049d576202a300106200044c578315620003f857620002648662000ba0565b8b51966145a380890197881189891017620003e657928f92620002b18f9361012097948c9b9a9996620002e1988d62000dab9039338c5230908c015261014080918c01528a019062000b79565b93606089015260808801528b5160a08801525160030b60c08701528b60e087015285820361010087015262000b79565b920152039083f0958615620003dc576002549660018801809811620003ca578760025560018060a01b031696835260038852858320876bffffffffffffffffffffffff60a01b825416179055338352818852858320906002549382549368010000000000000000851015620003ba5750505090620003659160018201815562000af8565b819291549060031b91821b91600019901b1916179055600254905183519285845286840152838301527f7bed24594bc69eabc466d2e497d2f8ec45df38dea10026d0c4e0b31cb0a9b9c660603393a351908152f35b634e487b7160e01b825260419052fd5b50634e487b7160e01b83526011825282fd5b85513d84823e3d90fd5b634e487b7160e01b8b5260418a528e8bfd5b50895162461bcd60e51b81528087018d90526028818d01527f496e697469616c206c6971756964697479206d75737420626520677265617465604482015267072207468616e20360c41b6064820152608490fd5b50895162461bcd60e51b81528087018d90526025818d01527f456e64206d757374206265206c657373207468616e203220646179732066726f6044820152646d206e6f7760d81b6064820152608490fd5b634e487b7160e01b8952601188528c89fd5b50895162461bcd60e51b81528087018d90526012818d015271456e64206d7573742062652066757475726560701b6044820152606490fd5b8680fd5b8380fd5b634e487b7160e01b8452604183528784fd5b5080fd5b50829034620000f8576020918260031936011262000501579192916001600160a01b036200053262000a1c565b1682528352818120908251808584549182815201908194845286842090845b818110620005a757505050816200056a91038262000a6b565b83519485948186019282875251809352850193925b8281106200058f57505050500390f35b8351855286955093810193928101926001016200057f565b82548452928801926001928301920162000551565b50829034620000f8576020928360031936011262000501578235825260038452808220546001600160a01b03168015620006875790848493928251948580926327793f8760e01b82525afa9283156200067c5782936200063d575b50519260038310156200062a5750508152f35b634e487b7160e01b825260219052602490fd5b9092508481813d831162000674575b62000658818362000a6b565b8101031262000501575160038110156200050157918562000617565b503d6200064c565b5051903d90823e3d90fd5b815162461bcd60e51b8152808501869052600a602482015269125b9d985b1a59081a5960b21b6044820152606490fd5b50903462000501578160031936011262000501576020906002549051908152f35b5090346200050157816003193601126200050157905490516001600160a01b039091168152602090f35b5034620000f85780600319360112620000f8576200071f62000b27565b80546001600160a01b03198116825581906001600160a01b03167f8be0079c531659141344cd1fd0a4f28419497f9722a3daafe3b4186f6b6457e08280a380f35b50919034620001895760209081600319360112620004eb576200078262000a1c565b6200078c62000b27565b600260015414620009da5760026001556001600160a01b03908116806200086c5750479081156200083b578580809381938254165af13d1562000835573d620007d58162000a8e565b90620007e48451928362000a6b565b815285843d92013e5b15620007fe575050505b6001805580f35b5162461bcd60e51b8152918201526013602482015272115512081dda5d1a191c985dc819985a5b1959606a1b604482015260649150fd5b620007ed565b50505162461bcd60e51b815291820152600b60248201526a4e6f20455448206665657360a81b604482015260649150fd5b82516370a0823160e01b8152308682015290918482602481865afa918215620009d05787926200099b575b50811562000968579060448592885416888651958694859363a9059cbb60e01b85528b85015260248401525af19081156200095e5785916200091d575b5015620008e457505050620007f7565b5162461bcd60e51b8152918201526015602482015274151bdad95b881dda5d1a191c985dc819985a5b1959605a1b604482015260649150fd5b90508281813d831162000956575b62000937818362000a6b565b810103126200095257518015158103620009525738620008d4565b8480fd5b503d6200092b565b82513d87823e3d90fd5b835162461bcd60e51b8152808701869052600d60248201526c4e6f20746f6b656e206665657360981b6044820152606490fd5b9091508481813d8311620009c8575b620009b6818362000a6b565b81010312620004e75751903862000897565b503d620009aa565b84513d89823e3d90fd5b8151633ee5aeb560e01b81528490fd5b929050346200050157602036600319011262000501579235815260036020908152929020546001600160a01b03168152f35b600435906001600160a01b038216820362000a3357565b600080fd5b6040810190811067ffffffffffffffff82111762000a5557604052565b634e487b7160e01b600052604160045260246000fd5b90601f8019910116810190811067ffffffffffffffff82111762000a5557604052565b67ffffffffffffffff811162000a5557601f01601f191660200190565b81601f8201121562000a335780359062000ac58262000a8e565b9262000ad5604051948562000a6b565b8284526020838301011162000a3357816000926020809301838601378301015290565b805482101562000b115760005260206000200190600090565b634e487b7160e01b600052603260045260246000fd5b6000546001600160a01b0316330362000b3c57565b60405163118cdaa760e01b8152336004820152602490fd5b60005b83811062000b685750506000910152565b818101518382015260200162000b57565b9060209162000b948151809281855285808601910162000b54565b601f01601f1916010190565b604080519160209262000bd284828162000bc4818301968781519384920162000b54565b810103808452018262000a6b565b519020815183810190670c525390d21554d160c21b82526008815262000bf88162000a38565b519020811462000d835781518381019066105055915554d160ca1b82526007815262000c248162000a38565b519020811462000d5c578151838101906910925510d3d2539554d160b21b8252600a815262000c538162000a38565b519020811462000d3557815183810190651093909554d160d21b82526006815262000c7e8162000a38565b519020811462000d0e57815183810190651155121554d160d21b82526006815262000ca98162000a38565b5190201462000ce85760649250519062461bcd60e51b82526004820152601060248201526f2ab739bab83837b93a32b2103830b4b960811b6044820152fd5b50507fff61491a931112ddf1bd8147cd1b641375f79f5825126d665480874634fd0ace90565b5050507f2f95862b045670cd22bee3114c39763a4a08beeb663b145d283c31d7d1101c4f90565b5050507fc5e0e0c92116c0c070a242b254270441a6201af680a33e0381561c59db3266c990565b5050507f2b9ab1e972a281585084148ba1389800799bd4be63b957507db1349314e4744590565b5050507f63f341689d98a12ef60a5cff1d7f85c70a9e17bf1575f0e7c0b2512d48b1c8b39056fe604060c08152346200076157620045a3803803806200001e8162000766565b928339810181810390610140821262000761576200003c836200078c565b926200004b602082016200078c565b818601519092906001600160401b0381116200076157816200006f918401620007a1565b916060810151916002831015620007615787608083015196609f190112620007615787518089016001600160401b03811182821017620004da57895260a0830151815260c08301518060030b81036200076157602082015260e08301516101008401519092906001600160401b038111620007615761012091620000f5918601620007a1565b930151966001600160a01b038916156200074957600080546001600160a01b031981166001600160a01b038c811691821784556020959493919216907f8be0079c531659141344cd1fd0a4f28419497f9722a3daafe3b4186f6b6457e09080a360018055612710600255610a3261ffff19600354161760035560ff60a01b196007541660075573cac524bca292aaade2df8a05cc58f0a65b1b3bb960805273dd24f84d36bf92c65f92307595335bdfab5bbd2160a052600d558051600e55015163ffffffff19600f54169063ffffffff1617600f55600a5580519060018060401b038211620004da57600b5490600182811c921680156200073e575b6020831014620006115781601f849311620006c9575b50602090601f83116001146200063e5760009262000632575b50508160011b916000199060031b1c191617600b555b4260095560ff8019600c5416911617600c5580519060018060401b038211620004da5760105490600182811c9216801562000627575b6020831014620006115781601f849311620005ad575b50602090601f8311600114620005335760009262000527575b50508160011b916000199060031b1c1916176010555b60088054600160a91b60ff60a81b19909116179055601280546001600160a01b038581166001600160a01b031992831617909255601180549390921692169190911790556004819055600254908115620005115704620f424090818102918183041490151715620004fb578251610d8680820193909291906001600160401b03851182861017620004da578190836060620037fd97878986396080808252600290820152614e4f60f01b60a08201526200038660c08201828103602084015260409060028152614e4f60f01b60208201520190565b6001600160a01b03909416818b0152015203906000f08015620004f057600780546001600160a01b0319166001600160a01b03928316179055601254855194911691908385016001600160401b03811186821017620004da578594606092863960808082526003908201526259455360e81b60a08201526200042460c082018281036020840152604090600381526259455360e81b60208201520190565b9387820152015203906000f08015620004cf57600680546001600160a01b0319166001600160a01b03929092169190911790556008805460ff60a01b1990811690915560078054909116905551612fe9908162000814823960805181818161032901528181610ea80152818161122a0152818161161301528181611771015281816117f101528181611b350152611ddd015260a0518181816109ad015281816113fd015261290a0152f35b50513d6000823e3d90fd5b634e487b7160e01b600052604160045260246000fd5b84513d6000823e3d90fd5b634e487b7160e01b600052601160045260246000fd5b634e487b7160e01b600052601260045260246000fd5b0151905038806200029b565b60106000908152600080516020620045838339815191529350601f198516905b8181106200059457509084600195949392106200057a575b505050811b01601055620002b1565b015160001960f88460031b161c191690553880806200056b565b9293602060018192878601518155019501930162000553565b601060005290915060008051602062004583833981519152601f840160051c8101916020851062000606575b90601f859493920160051c01905b818110620005f6575062000282565b60008155849350600101620005e7565b9091508190620005d9565b634e487b7160e01b600052602260045260246000fd5b91607f16916200026c565b01519050388062000220565b600b60009081527f0175b7a638427703f0dbe7bb9bbf987a2551717b34e79f33b5b1008d1fa01db99350601f198516905b818110620006b0575090846001959493921062000696575b505050811b01600b5562000236565b015160001960f88460031b161c1916905538808062000687565b929360206001819287860151815501950193016200066f565b600b6000529091507f0175b7a638427703f0dbe7bb9bbf987a2551717b34e79f33b5b1008d1fa01db9601f840160051c8101916020851062000733575b90601f859493920160051c01905b81811062000723575062000207565b6000815584935060010162000714565b909150819062000706565b91607f1691620001f1565b8951631e4fbdf760e01b815260006004820152602490fd5b600080fd5b6040519190601f01601f191682016001600160401b03811183821017620004da57604052565b51906001600160a01b03821682036200076157565b919080601f84011215620007615782516001600160401b038111620004da57602090620007d7601f8201601f1916830162000766565b92818452828287010111620007615760005b818110620007ff57508260009394955001015290565b8581018301518482018401528201620007e956fe608080604052600436101561001357600080fd5b600090813560e01c90816302d05d3f1461235d5750806303ee438c146122a25780630dd919d21461225c57806311a9f10a14612233578063190bfcd0146122155780631ca9b435146121fb578063200d2ed2146121d257806326a9e1781461211957806327793f87146120ec5780633197cbb6146120ce578063336fe2c914611d61578063361bc1b514611d38578063386b166e14611d1457806340794c3b14611c1657806346e7778214611bf55780634c5b59a514611a3c57806351c6590a146117a057806351ed6a301461175b5780635c3c107e14611735578063645539ed146116f557806365e23abc14611538578063715018a6146114de57806378e97925146114c05780638197e7cd1461142c5780638afffea5146113e75780638da5cb5b146113c05780639c8f9f23146110d2578063a8512a0a146110b0578063adc6013e14610d74578063b56d46d614610753578063bb9c57fa14610735578063c3cca65e14610717578063c45a0155146106ee578063cc7e7c2014610656578063d44cd8dd146102d0578063dc38679c146102a8578063e736e3f71461028a578063f0d9bb20146102615763f2fde38b146101ce57600080fd5b3461025e57602036600319011261025e576004356001600160a01b038181169182900361025a576101fd612515565b811561024157600054826001600160601b0360a01b821617600055167f8be0079c531659141344cd1fd0a4f28419497f9722a3daafe3b4186f6b6457e0600080a380f35b604051631e4fbdf760e01b815260048101849052602490fd5b8280fd5b80fd5b503461025e578060031936011261025e576006546040516001600160a01b039091168152602090f35b503461025e578060031936011261025e576020600454604051908152f35b503461025e578060031936011261025e576040600e54600f5460030b82519182526020820152f35b503461025e576102df3661244b565b60ff60075460a01c166106445782546001600160a01b0390811633146106325781156106205761030f8284612bfb565b6040516370a0823160e01b815233600482015290916020917f00000000000000000000000000000000000000000000000000000000000000008216908381602481855afa801561059f57859189916105ef575b50106105aa57604051636eb1769f60e11b81523360048201523060248201528381604481855afa801561059f5785918991610569575b5010610524576040516323b872dd60e01b815233600482015230602482015260448101859052908390829060649082908b905af19081156105195787916104fc575b50156104bf578186916103ec8761246a565b866104b55780600654165b60405163a9059cbb60e01b815233600482015260248101889052938492604492849291165af19182156104aa57869261047d575b50501561046b577f78408fb808ae2018d121a91ae47221eb4b85530dc14522ce2ddcb93083e269d691610465604051928392339684612bdd565b0390a280f35b6040516318161dad60e21b8152600490fd5b61049c9250803d106104a3575b61049481836123e1565b810190612612565b388061042b565b503d61048a565b6040513d88823e3d90fd5b80600754166103f7565b60405162461bcd60e51b815260048101839052601560248201527414165554d1081d1c985b9cd9995c8819985a5b1959605a1b6044820152606490fd5b6105139150833d85116104a35761049481836123e1565b386103da565b6040513d89823e3d90fd5b60405162461bcd60e51b815260048101849052601c60248201527f496e73756666696369656e7420505955534420616c6c6f77616e6365000000006044820152606490fd5b809250858092503d8311610598575b61058281836123e1565b810103126105935784905138610398565b600080fd5b503d610578565b6040513d8a823e3d90fd5b60405162461bcd60e51b815260048101849052601a60248201527f496e73756666696369656e742050595553442062616c616e63650000000000006044820152606490fd5b809250858092503d8311610619575b61060881836123e1565b810103126105935784905138610362565b503d6105fe565b604051632688641b60e21b8152600490fd5b60405163086b2ac360e41b8152600490fd5b6040516378e34bb960e01b8152600490fd5b503461025e578060031936011261025e5760185460405190610677826123ab565b6106ea6019548060070b84526001600160401b0390818160401c16602086015260801c60030b6040850152601a546060850152604051906106b7826123ab565b601b54908160070b83528160401c16602083015260801c60030b6040820152601c546060820152604051938493846124ec565b0390f35b503461025e578060031936011261025e576011546040516001600160a01b039091168152602090f35b503461025e578060031936011261025e576020600554604051908152f35b503461025e578060031936011261025e576020600d54604051908152f35b50606036600319011261025e576004356001600160401b038111610bc05761077f90369060040161248a565b6024356001600160401b038111610bc45761079e90369060040161248a565b6044939193356001600160401b038111610d70576107c090369060040161248a565b9490936007549360ff8560a01c1661064457600a544210610d5e5760ff60a01b19909416600160a01b176007556107f6936128fc565b6107ff8161271b565b518051601355602081015190815190606060406108ba60145496838367ffffffffffffffff60401b60208a0151821b169682828b01519a8b60801b63ffffffff60801b168d6001600160401b038d16906001600160601b0360a01b16178b171760145501516015550151805160165467ffffffffffffffff60401b6020840151881b16906001600160401b038885015160801b63ffffffff60801b169316906001600160601b0360a01b16171717601655015160175561273e565b518051601855826020820151805160195467ffffffffffffffff60401b6020840151871b16906001600160401b038785015160801b63ffffffff60801b169316906001600160601b0360a01b161717176019550151601a5501518051601b5467ffffffffffffffff60401b602084015160401b16906001600160401b03604085015160801b63ffffffff60801b169316906001600160601b0360a01b16171717601b550151601c5560ff600c54166002811015610d4a5715610c9e575b5050505060ff600c54166002811015610c8a57906001849214610c0a575b60405163d47eed4560e01b81526020600482018190527f00000000000000000000000000000000000000000000000000000000000000006001600160a01b03169491929083806109e9602482018686612682565b0381885afa928315610bff578493610bc8575b50843b15610bc457604051631df3cbc560e31b815260206004820152928492849283918291610a2f916024840191612682565b0391875af18015610ba157610bac575b50506080600d5460446040518094819363052571af60e51b83526004830152603c60248301525afa908115610ba1578291610b68575b5060608151601d5467ffffffffffffffff60401b602085015160401b16906001600160401b03604086015160801b63ffffffff60801b169316906001600160601b0360a01b161717179182601d550151601e557fda06f234b668c93d5e36ae196cc16d06d14b6491a4ac4499042f0b351498f6686020610b4e6008549360ff8560a81c1660405190610b068161246a565b81526001600160a01b0386168482015233907f54abe5cff8746fc59eefd3a10a4e9821354cd951ffef23d64fdb7939b6e2e41990604090a28060801c60030b9060070b612edf565b604051908152a160ff60a01b1916600160a11b1760085580f35b905060803d608011610b9a575b610b7f81836123e1565b810160808282031261025a57610b9491612773565b38610a75565b503d610b75565b6040513d84823e3d90fd5b610bb590612382565b610bc0578138610a3f565b5080fd5b8380fd5b935091506020833d602011610bf7575b81610be5602093836123e1565b810103126105935784925191386109fc565b3d9150610bd8565b6040513d86823e3d90fd5b610c206019548060801c60030b9060070b612edf565b610c32600e54600f5460030b90612edf565b10610c5c57600880546006546001600160a01b0316600161ff0160a01b0319909116179055610995565b60088054600754600161ff0160a01b03199091166001600160a01b039190911617600160a81b179055610995565b634e487b7160e01b84526021600452602484fd5b610cdb93608093841b63ffffffff60801b166001600160401b03939093166001600160a01b03199091161717179081901c60030b9060070b612edf565b610ced600e54600f5460030b90612edf565b11610d1c57600880546006546001600160a01b0316600161ff0160a01b03199091161790555b38808080610977565b60088054600754600161ff0160a01b03199091166001600160a01b039190911617600160a81b179055610d13565b634e487b7160e01b88526021600452602488fd5b60405163039d21e760e11b8152600490fd5b8580fd5b503461025e57610d833661244b565b6007549060ff8260a01c166106445783546001600160a01b03929083163314610632578115610620578290610db78561246a565b846110a9575080600654165b16906040516370a0823160e01b8082523360048301526020918281602481885afa801561059f5784918991611078575b50106110075750604051636eb1769f60e11b808252336004830152306024830152908281604481885afa801561059f5784918991610fd6575b5010610f4f5750610e3d8286612cac565b6040516323b872dd60e01b81523360048201523060248201526044810184905290938290829060649082908b905af1908115610519578791610f32575b501561046b5760405163a9059cbb60e01b815233600482015260248101849052938190859060449082908a907f0000000000000000000000000000000000000000000000000000000000000000165af180156104aa577fdb6c1cc84b96330a9be015b7f4d49df42a035945bf4bc3423e48a6e4259dbb7b94610f04928892610f15575b505061262a565b610465604051928392339684612bdd565b610f2b9250803d106104a35761049481836123e1565b3880610efd565b610f499150823d84116104a35761049481836123e1565b38610e7a565b604051908152336004820152306024820152928691908190859060449082905afa918215610fca5791610f9b575b60448383604051916377594e6960e01b835260048301526024820152fd5b905082813d8311610fc3575b610fb181836123e1565b81010312610593576044915183610f7d565b503d610fa7565b604051903d90823e3d90fd5b809250848092503d8311611000575b610fef81836123e1565b810103126105935783905138610e2c565b503d610fe5565b9080879260246040518097819382523360048301525afa918215610fca5791611049575b604483836040519163053ab6d560e21b835260048301526024820152fd5b905082813d8311611071575b61105f81836123e1565b8101031261059357604491518361102b565b503d611055565b809250848092503d83116110a2575b61109181836123e1565b810103126105935783905138610df3565b503d611087565b8116610dc3565b503461025e5760206110ca6110c43661244b565b90612cac565b604051908152f35b503461025e57602080600319360112610bc057600435906110f1612515565b6007549060ff8260a01c166106445761110c60025484612541565b91620f4240928381029381850414901517156113ac576006546040516370a0823160e01b8082523060048301526001600160a01b0393928416929091908582602481875afa9081156113a15787879287948c9161136c575b5010938415611307575b505050506112e957859061118486600454612675565b600455803b15610bc057604051632770a7eb60e21b808252306004830152602482018790529183908290604490829084905af19081156112de5783916112ca575b5050826007541690813b1561025a57604051908152306004820152602481018690529082908290604490829084905af18015610ba1576112b2575b505060405163a9059cbb60e01b8152336004820152602481018590529082908290604490829089907f0000000000000000000000000000000000000000000000000000000000000000165af180156112a75761128a575b506040519283528201527f96cd817c6329656790ef8fba7675405193677d39619571282f5e21f3a98cd05960403392a280f35b6112a090823d84116104a35761049481836123e1565b5038611257565b6040513d87823e3d90fd5b6112bb90612382565b6112c6578438611200565b8480fd5b6112d390612382565b610bc05781386111c5565b6040513d85823e3d90fd5b604486856040519163a4d71b8160e01b835260048301526024820152fd5b6024919293945060405194859384928352306004840152165afa8015610519578591889161133b575b50108284388061116e565b809250858092503d8311611365575b61135481836123e1565b810103126105935784905138611330565b503d61134a565b93929450505081813d831161139a575b61138681836123e1565b810103126105935784918787925138611164565b503d61137c565b6040513d8b823e3d90fd5b634e487b7160e01b85526011600452602485fd5b503461025e578060031936011261025e57546040516001600160a01b039091168152602090f35b503461025e578060031936011261025e576040517f00000000000000000000000000000000000000000000000000000000000000006001600160a01b03168152602090f35b503461025e578060031936011261025e576013546040519061144d826123ab565b6106ea6014548060070b84526001600160401b0390818160401c16602086015260801c60030b604085015260155460608501526040519061148d826123ab565b601654908160070b83528160401c16602083015260801c60030b60408201526017546060820152604051938493846124ec565b503461025e578060031936011261025e576020600954604051908152f35b503461025e578060031936011261025e576114f7612515565b600080546001600160a01b0319811682556001600160a01b03167f8be0079c531659141344cd1fd0a4f28419497f9722a3daafe3b4186f6b6457e08280a380f35b503461025e578060031936011261025e57611551612515565b60ff60075460a01c16156116e3576008546040516370a0823160e01b81523060048201526020916001600160a01b039081169184908481602481875afa908115610ba15782916116b2575b50620f42406115ad60025483612561565b0493803b1561025a57604051632770a7eb60e21b8152306004820152602481019290925282908290604490829084905af18015610ba15761169e575b505060405163a9059cbb60e01b8152336004820152602481018390529083908290604490829088907f0000000000000000000000000000000000000000000000000000000000000000165af1908115610bff5761164e92939491611681575b5061262a565b6040518181527f316a0bcd9820c43f9ba8738fd680d536a8ac65080f56f96833f696f6dd5a12fd833392a2604051908152f35b6116989150843d86116104a35761049481836123e1565b38611648565b6116a790612382565b610bc45783386115e9565b809250858092503d83116116dc575b6116cb81836123e1565b81010312610593578490513861159c565b503d6116c1565b604051635fd4000d60e11b8152600490fd5b503461025e578060031936011261025e5760ff600c541660405190600281101561172157602092508152f35b634e487b7160e01b83526021600452602483fd5b503461025e578060031936011261025e57602060ff60075460a01c166040519015158152f35b503461025e578060031936011261025e576040517f00000000000000000000000000000000000000000000000000000000000000006001600160a01b03168152602090f35b503461025e57602080600319360112610bc057600435906117bf612515565b60ff60075460a01c16610644578115610620576040516370a0823160e01b81523360048201526001600160a01b0391907f00000000000000000000000000000000000000000000000000000000000000008316908281602481855afa80156104aa5785908790611a0b575b6118369250101561258a565b604051636eb1769f60e11b81523360048201523060248201528281604481855afa80156104aa57859087906119da575b611872925010156125cd565b6040516323b872dd60e01b8152336004820152306024820152604481018590529082908290606490829089905af180156112a7576118b69186916119c3575061262a565b6118c260025484612541565b91620f4240928381029381850414901517156113ac5784906118e685600454612668565b600455806006541690813b1561025a576040516340c10f1960e01b808252306004830152602482018790529284908290604490829084905af1908115610bff5784916119af575b50506007541690813b1561025a57604051908152306004820152602481018590529082908290604490829084905af18015610ba15761199b575b50506040519283528201527fac1d76749e5447b7b16f5ab61447e1bd502f3bb4807af3b28e620d1700a6ee4560403392a280f35b6119a490612382565b610bc4578338611967565b6119b890612382565b61025a57823861192d565b6116989150833d85116104a35761049481836123e1565b50508281813d8311611a04575b6119f181836123e1565b8101031261059357846118729151611866565b503d6119e7565b50508281813d8311611a35575b611a2281836123e1565b810103126105935784611836915161182a565b503d611a18565b503461025e57602080600319360112610bc0576004359060ff60075460a01c16156116e35782546001600160a01b03919082163314610632578215610620578160085416916040516370a0823160e01b81523360048201528281602481875afa80156104aa5785918791611bc4575b5010611bb257620f4240611ac160025486612561565b0492611acf84600454612675565b600455803b15610d7057604051632770a7eb60e21b8152336004820152602481018690529086908290604490829084905af180156104aa57611b9f575b5060405163a9059cbb60e01b8152336004820152602481018490529082908290604490829089907f0000000000000000000000000000000000000000000000000000000000000000165af180156112a757611b6d9186916119c3575061262a565b6040519283528201527faeb4b315a6442ab135da41b9b7b337c712b68e5a6051ef6299965f3e58dbebbb60403392a280f35b611bab90959195612382565b9338611b0c565b6040516328f48e2f60e01b8152600490fd5b809250848092503d8311611bee575b611bdd81836123e1565b81010312610d705784905138611aab565b503d611bd3565b503461025e578060031936011261025e57602060ff60035416604051908152f35b503461025e578060031936011261025e576040518160105490600182811c91818416938415611d0a575b6020948585108114611cf657848752908115611cd45750600114611c7b575b6106ea85611c6f818903826123e1565b60405191829182612402565b929450601083527f1b6847dc741a1b0cd08d278845f9d819d87b734759afb55fe2de5cb82a9ae6725b828410611cc157505050816106ea93611c6f928201019338611c5f565b8054858501870152928501928101611ca4565b60ff191686860152505050151560051b8201019150611c6f816106ea38611c5f565b634e487b7160e01b83526022600452602483fd5b92607f1692611c40565b503461025e578060031936011261025e57602060ff60035460081c16604051908152f35b503461025e578060031936011261025e576008546040516001600160a01b039091168152602090f35b503461025e578060031936011261025e57611d7a612515565b60ff60085460a01c16611d8c8161246a565b6120bc57600454611d9f60025482612541565b620f4240908181029181830414901517156120a8576012546040516370a0823160e01b81526001600160a01b039182166004820181905260209490917f0000000000000000000000000000000000000000000000000000000000000000841691908681602481865afa801561059f5782908990612077575b611e239250101561258a565b604051636eb1769f60e11b81526001600160a01b0384166004820152306024820152918683604481845afa801561059f5787938991612040575b5093611e6e83611eab9610156125cd565b6040516323b872dd60e01b81526001600160a01b039091166004820152306024820152604481019290925290928391908290899082906064820190565b03925af180156112a757611ec5918691612029575061262a565b60035460ff811692611ee860ff611edc8684612561565b9360081c168093612561565b938460011b94808604600214901517156120155760640360ff811161201557611f1e929160ff611f19921690612561565b612561565b918260011b92808404600214901517156113ac5760065460125460405163a9059cbb60e01b8082529185166001600160a01b031660048201526127109384900460248201529094909391869085908416818a816044810103925af1938415610519578694611ff8575b5060075460125460405196875283166001600160a01b031660048701529290046024850152839160449183918891165af180156112de57611fda575b6008805460ff60a01b1916600160a01b1790558280f35b81611ff092903d106104a35761049481836123e1565b503880611fc3565b61200e90853d87116104a35761049481836123e1565b5038611f87565b634e487b7160e01b87526011600452602487fd5b6116989150853d87116104a35761049481836123e1565b84819592503d8311612070575b61205781836123e1565b8101031261206c579151869290611e6e611e5d565b8780fd5b503d61204d565b50508681813d83116120a1575b61208e81836123e1565b8101031261206c5781611e239151611e17565b503d612084565b634e487b7160e01b83526011600452602483fd5b604051637ca6958160e01b8152600490fd5b503461025e578060031936011261025e576020600a54604051908152f35b503461025e578060031936011261025e57602060ff60085460a81c16604051906121158161246a565b8152f35b50604036600319011261025e576001600160401b0360043581811161025a5761214690369060040161248a565b90602435928311610bc45761216261216a93369060040161248a565b9290916128fc565b60405190602080830190808452825180925280604085019301945b8281106121925784840385f35b909192826101206001926121c360408a51805184526121b786820151878601906124ba565b015160a08301906124ba565b01960191019492919094612185565b503461025e578060031936011261025e57602060ff60085460a01c16604051906121158161246a565b503461025e5760206110ca61220f3661244b565b90612bfb565b503461025e578060031936011261025e576020600254604051908152f35b503461025e578060031936011261025e576007546040516001600160a01b039091168152602090f35b503461025e578060031936011261025e576080601d54601e54604051918060070b83526001600160401b038160401c166020840152831c60030b60408301526060820152f35b503461025e578060031936011261025e5760405181600b5490600182811c91818416938415612353575b6020948585108114611cf657848752908115611cd457506001146122fa576106ea85611c6f818903826123e1565b929450600b83527f0175b7a638427703f0dbe7bb9bbf987a2551717b34e79f33b5b1008d1fa01db95b82841061234057505050816106ea93611c6f928201019338611c5f565b8054858501870152928501928101612323565b92607f16926122cc565b905034610bc05781600319360112610bc0576012546001600160a01b03168152602090f35b6001600160401b03811161239557604052565b634e487b7160e01b600052604160045260246000fd5b608081019081106001600160401b0382111761239557604052565b606081019081106001600160401b0382111761239557604052565b90601f801991011681019081106001600160401b0382111761239557604052565b6020808252825181830181905290939260005b82811061243757505060409293506000838284010152601f8019910116010190565b818101860151848201604001528501612415565b6040906003190112610593576004356003811015610593579060243590565b6003111561247457565b634e487b7160e01b600052602160045260246000fd5b9181601f84011215610593578235916001600160401b038311610593576020808501948460051b01011161059357565b60608091805160070b84526001600160401b036020820151166020850152604081015160030b60408501520151910152565b60a09061250c6125139496959396610120830197835260208301906124ba565b01906124ba565b565b6000546001600160a01b0316330361252957565b60405163118cdaa760e01b8152336004820152602490fd5b811561254b570490565b634e487b7160e01b600052601260045260246000fd5b8181029291811591840414171561257457565b634e487b7160e01b600052601160045260246000fd5b1561259157565b60405162461bcd60e51b8152602060048201526014602482015273496e73756666696369656e742062616c616e636560601b6044820152606490fd5b156125d457565b60405162461bcd60e51b8152602060048201526016602482015275496e73756666696369656e7420616c6c6f77616e636560501b6044820152606490fd5b90816020910312610593575180151581036105935790565b1561263157565b60405162461bcd60e51b815260206004820152600f60248201526e151c985b9cd9995c8819985a5b1959608a1b6044820152606490fd5b9190820180921161257457565b9190820391821161257457565b8183526020600583901b84018101939192906000818401855b8483106126ac575050505050505090565b90919293949596601f19808883030184528835601e198436030181121561059357830186810190356001600160401b03811161059357803603821361059357838893601f83808796879660019a528686013760008582860101520116010199019301930191959493929061269b565b8051156127285760200190565b634e487b7160e01b600052603260045260246000fd5b8051600110156127285760400190565b6040519061275b826123ab565b60006060838281528260208201528260408201520152565b91908260809103126105935760405161278b816123ab565b809280518060070b810361059357825260208101516001600160401b038116810361059357602083015260408101518060030b8103610593576040830152606090810151910152565b602080828403126105935781516001600160401b039283821161059357019083601f8301121561059357815192831161239557604080519461281b838660051b01876123e1565b848652828601918361012080970286010194828611610593578401925b858410612849575050505050505090565b8684840312610593578487918351612860816123c6565b8651815261287086848901612773565b838201526128818660a08901612773565b85820152815201930192612838565b939291906128a991969596608086526080860191612682565b6020908481038286015281808451928381520193019160005b8281106128e8575050505090606091946001600160401b03809216604085015216910152565b8351855293810193928101926001016128c2565b919392909360018060a01b037f0000000000000000000000000000000000000000000000000000000000000000169160409283519263d47eed4560e01b8085526020968760048701528786806129578d602483019086612682565b0381875afa958615612ba357600096612bae575b508651918252876004830152878280612988602482018988612682565b0381875afa918215612ba357600092612b74575b506129a78287612668565b3410612b3b578651956001600160401b039087890182811189821017612395578952600188529a8936818a0137600d546129e08961271b565b5281600954169b8c92600a54169c8d918a8c80519e8f6129ff816123c6565b600281526000905b838210612af45750505094612a36600095965196879586948594634716e9c560e01b9c8d875260048701612890565b03918a5af1908115612ae95791612a5f6000999a9b9c9d92612a88948b91612abe575b5061271b565b51612a698d61271b565b52612a738c61271b565b508a51998a9889978896875260048701612890565b03925af1918215612adf575090612aa691600091612abe575061271b565b51612ab08261273e565b52612aba8161273e565b5090565b612ad9913d8091833e612ad181836123e1565b8101906127d4565b38612a59565b513d6000823e3d90fd5b89513d6000823e3d90fd5b8296508295989750819450835193612b0b856123c6565b60008552612b1761274e565b84860152612b2361274e565b9085015201015201928a8f939486938f918f92612a07565b865162461bcd60e51b8152600481018990526012602482015271496e73756666696369656e742066756e647360701b6044820152606490fd5b90918882813d8311612b9c575b612b8b81836123e1565b8101031261025e575051903861299c565b503d612b81565b87513d6000823e3d90fd5b90958882813d8311612bd6575b612bc581836123e1565b8101031261025e575051943861296b565b503d612bbb565b60608101949392604092612bf08161246a565b825260208201520152565b612c0490612d1f565b91808210612c9a5760045491612c1d6002548094612541565b92620f42409384810294818604149015171561257457612c8d84612c87612c63612c5d64e8d4a5100099612c57611f1998612c969b612675565b94612675565b83612668565b612c8187612c7b81612c758588612eae565b96612668565b92612668565b90612eae565b90612668565b60011c90612561565b0490565b60405163224e54d760e01b8152600490fd5b612cb590612d1f565b9160045491612cc76002548094612541565b92620f42409384810294818604149015171561257457612c8d84612c87612d01612c5d64e8d4a5100099612c57611f1998612c969b612675565b612c8187612d1981612d138588612eae565b96612675565b92612675565b612d288161246a565b612e0c576006546040516370a0823160e01b808252306004830152602093926001600160a01b03929085908290602490829087165afa928315612dce578591600094612dda575b50600754169160246040518094819382523060048301525afa938415612dce57600094612d9d575b50509190565b8181959293953d8311612dc7575b612db581836123e1565b8101031261025e575051913880612d97565b503d612dab565b6040513d6000823e3d90fd5b9182819592953d8311612e05575b612df281836123e1565b8101031261025e57508490519238612d6f565b503d612de8565b6007546040516370a0823160e01b808252306004830152602093926001600160a01b03929085908290602490829087165afa928315612dce578591600094612e7c575b50600654169160246040518094819382523060048301525afa938415612dce57600094612d9d5750509190565b9182819592953d8311612ea7575b612e9481836123e1565b8101031261025e57508490519238612e4f565b503d612e8a565b908015612ed657620f42409182810292818404149015171561257457612ed391612541565b90565b50506207a12090565b9060030b600719808203612ef257505090565b80821215612f28570390637fffffff198212637fffffff83131761257457612f22612ed39263ffffffff16612f59565b90612541565b5060080190637fffffff198212637fffffff83131761257457612f53612ed39263ffffffff16612f59565b90612561565b600190816000815b612f6c575b50505090565b90919263ffffffff8085169083161015612fad57600a90818102918183041490151715612574579263ffffffff809216918214612574579190810181612f61565b92612f6656fea2646970667358221220a2ede5cd86cce4c868cce1c3050e44c81412b9a3e1b113dbf4c5e4689d42eba564736f6c6343000814003360406080815234620003d65762000d86803803806200001e81620003db565b9283398101608082820312620003d65781516001600160401b039290838111620003d657826200005091830162000401565b906020928382015190858211620003d6576200006e91830162000401565b8186015190926001600160a01b038216929091839003620003d65760600151948151818111620002d6576003908154906001948583811c93168015620003cb575b89841014620003b5578190601f938481116200035f575b508990848311600114620002f857600092620002ec575b505060001982851b1c191690851b1782555b8551928311620002d65760049586548581811c91168015620002cb575b89821014620002b6578281116200026b575b50879184116001146200020057938394918492600095620001f4575b50501b92600019911b1c19161782555b60018060a01b03193381600554161760055560065416176006553315620001dd5760025490838201809211620001c857506000917fddf252ad1be2c89b69c2b068fc378daa952ba7f163c4a11628f55a4df523b3ef9160025533835282815284832084815401905584519384523393a3516109129081620004748239f35b601190634e487b7160e01b6000525260246000fd5b602490600085519163ec442f0560e01b8352820152fd5b0151935038806200013a565b9190601f198416928760005284896000209460005b8b8983831062000253575050501062000238575b50505050811b0182556200014a565b01519060f884600019921b161c191690553880808062000229565b86860151895590970196948501948893500162000215565b87600052886000208380870160051c8201928b8810620002ac575b0160051c019086905b8281106200029f5750506200011e565b600081550186906200028f565b9250819262000286565b602288634e487b7160e01b6000525260246000fd5b90607f16906200010c565b634e487b7160e01b600052604160045260246000fd5b015190503880620000dd565b90879350601f19831691866000528b6000209260005b8d8282106200034857505084116200032f575b505050811b018255620000ef565b015160001983871b60f8161c1916905538808062000321565b8385015186558b979095019493840193016200030e565b90915084600052896000208480850160051c8201928c8610620003ab575b918991869594930160051c01915b8281106200039b575050620000c6565b600081558594508991016200038b565b925081926200037d565b634e487b7160e01b600052602260045260246000fd5b92607f1692620000af565b600080fd5b6040519190601f01601f191682016001600160401b03811183821017620002d657604052565b919080601f84011215620003d65782516001600160401b038111620002d65760209062000437601f8201601f19168301620003db565b92818452828287010111620003d65760005b8181106200045f57508260009394955001015290565b85810183015184820184015282016200044956fe608060408181526004918236101561001657600080fd5b600092833560e01c91826306fdde03146106ac57508163095ea7b31461060257816318160ddd146105e357816323b872dd146104d0578163313ce567146104b457816340c10f19146103ec5781635b8bec55146103c357816370a082311461038c57816395d89b411461026d5781639dc29fac1461017d578163a9059cbb1461012757508063dd62ed3e146100df5763def114b6146100b457600080fd5b346100db57816003193601126100db5760055490516001600160a01b039091168152602090f35b5080fd5b50346100db57806003193601126100db57806020926100fc6107cd565b6101046107e8565b6001600160a01b0391821683526001865283832091168252845220549051908152f35b82843461017a578160031936011261017a57506101426107cd565b9160018060a01b0360065416331461016c575061016560209260243590336107fe565b5160018152f35b905163ec0511b360e01b8152fd5b80fd5b839150346100db57826003193601126100db576101986107cd565b6005549091602435916001600160a01b03908116330361025e578316928315610247578385528460205285852054918383106102135750508184957fddf252ad1be2c89b69c2b068fc378daa952ba7f163c4a11628f55a4df523b3ef936020938688528785520381872055816002540360025551908152a380f35b865163391434e360e21b81526001600160a01b03909216908201908152602081018390526040810184905281906060010390fd5b8551634b637e8f60e11b8152808301869052602490fd5b508451631e29ea2960e11b8152fd5b8383346100db57816003193601126100db57805190828454600181811c90808316928315610382575b602093848410811461036f5783885290811561035357506001146102fe575b505050829003601f01601f191682019267ffffffffffffffff8411838510176102eb57508291826102e7925282610784565b0390f35b634e487b7160e01b815260418552602490fd5b8787529192508591837f8a35acfbc15ff81a39ae7d344fd709f28e8600b4aa8c65c6b64bfe7fe36bd19b5b83851061033f57505050508301018580806102b5565b805488860183015293019284908201610329565b60ff1916878501525050151560051b84010190508580806102b5565b634e487b7160e01b895260228a52602489fd5b91607f1691610296565b5050346100db5760203660031901126100db5760209181906001600160a01b036103b46107cd565b16815280845220549051908152f35b5050346100db57816003193601126100db5760065490516001600160a01b039091168152602090f35b919050346104b057806003193601126104b0576104076107cd565b60055460243592916001600160a01b0391821633036104a0571692831561048b5760025490838201809211610478575084927fddf252ad1be2c89b69c2b068fc378daa952ba7f163c4a11628f55a4df523b3ef9260209260025585855284835280852082815401905551908152a380f35b634e487b7160e01b865260119052602485fd5b84602492519163ec442f0560e01b8352820152fd5b825163294c9fd360e01b81528590fd5b8280fd5b5050346100db57816003193601126100db576020905160068152f35b9050823461017a57606036600319011261017a576104ec6107cd565b6104f46107e8565b60065460443594919391906001600160a01b03848116911681146105d457808352600160205286832033845260205286832054916000198303610540575b6020886101658989896107fe565b8683106105a857811561059157331561057a5750825260016020908152868320338452815291869020908590039055829061016587610532565b8751634a1406b160e11b8152908101849052602490fd5b875163e602df0560e01b8152908101849052602490fd5b8751637dc7a0d960e11b8152339181019182526020820193909352604081018790528291506060010390fd5b50855163ec0511b360e01b8152fd5b5050346100db57816003193601126100db576020906002549051908152f35b9050346104b057816003193601126104b05761061c6107cd565b602435903315610695576001600160a01b031691821561067e57508083602095338152600187528181208582528752205582519081527f8c5be1e5ebec7d5bd14f71427d1e84f3dd0314c0f7b2291e5b200ac8c7c3b925843392a35160018152f35b8351634a1406b160e11b8152908101859052602490fd5b835163e602df0560e01b8152808401869052602490fd5b849084346104b057826003193601126104b05782600354600181811c9080831692831561077a575b602093848410811461036f57838852908115610353575060011461072457505050829003601f01601f191682019267ffffffffffffffff8411838510176102eb57508291826102e7925282610784565b600387529192508591837fc2575a0e9e593c00f959f8c92f12db2869c3395a3b0502d05e2516446f71f85b5b83851061076657505050508301018580806102b5565b805488860183015293019284908201610750565b91607f16916106d4565b6020808252825181830181905290939260005b8281106107b957505060409293506000838284010152601f8019910116010190565b818101860151848201604001528501610797565b600435906001600160a01b03821682036107e357565b600080fd5b602435906001600160a01b03821682036107e357565b916001600160a01b038084169283156108c357169283156108aa5760009083825281602052604082205490838210610878575091604082827fddf252ad1be2c89b69c2b068fc378daa952ba7f163c4a11628f55a4df523b3ef958760209652828652038282205586815220818154019055604051908152a3565b60405163391434e360e21b81526001600160a01b03919091166004820152602481019190915260448101839052606490fd5b60405163ec442f0560e01b815260006004820152602490fd5b604051634b637e8f60e11b815260006004820152602490fdfea26469706673582212203672f4cd9b1754d205280219cc0fec549867232c19c11c6bdbee5f30f8290b8264736f6c634300081400331b6847dc741a1b0cd08d278845f9d819d87b734759afb55fe2de5cb82a9ae672a264697066735822122003fc97879a8b64da98e5aba2f8ec569255f4f062b70e81a3a83e2a1724d5265164736f6c63430008140033",
  "linkReferences": {},
  "deployedLinkReferences": {}
}